{
  "contractName": "Counter",
  "abi": [
    {
      "inputs": [],
      "payable": false,
      "stateMutability": "nonpayable",
      "type": "constructor"
    },
    {
      "constant": true,
      "inputs": [],
      "name": "count",
      "outputs": [
        {
          "internalType": "uint256",
          "name": "",
          "type": "uint256"
        }
      ],
      "payable": false,
      "stateMutability": "view",
      "type": "function"
    },
    {
      "constant": false,
      "inputs": [],
      "name": "incrementCount",
      "outputs": [],
      "payable": false,
      "stateMutability": "nonpayable",
      "type": "function"
    }
  ],
  "bytecode": "0x6080604052348015600f57600080fd5b5060008055609d806100226000396000f3fe6080604052348015600f57600080fd5b506004361060325760003560e01c806306661abd146037578063e5071b8e14604f575b600080fd5b603d6057565b60408051918252519081900360200190f35b6055605d565b005b60005481565b60008054600101905556fea265627a7a723158205643d95c552f2524cc8c593f9b9c5eb35c593b6f998a935c2247958c3babfc5164736f6c63430005100032",
  "source": "pragma solidity ^0.5.16;\n\ncontract Counter {\n  // Unsigned integer\n  // count is state variable. It'll be stored in blockchain.\n  uint public count;\n\n  constructor() public {\n    count = 0;\n  }\n\n  // 'view' means count is read only\n  // We'll use pubilc in front of variable to access it directly instead of through a function\n  // function getCount() public view returns(uint) {\n  //   return count;\n  // }\n\n  function incrementCount() public {\n    count ++;\n  }\n}\n",
  "sourcePath": "/home/robogod/Code/blockchain/master-solidity/contracts/Counter.sol",
  "compiler": {
    "name": "solc",
    "version": "0.5.16+commit.9c3226ce.Emscripten.clang"
  },
  "schemaVersion": "3.4.4",
  "updatedAt": "2022-01-30T07:20:48.550Z",
  "networkType": "ethereum",
  "devdoc": {
    "methods": {}
  },
  "userdoc": {
    "methods": {}
  }
}