{
  "contractName": "HotelRoom",
  "abi": [
    {
      "inputs": [],
      "payable": false,
      "stateMutability": "nonpayable",
      "type": "constructor"
    },
    {
      "anonymous": false,
      "inputs": [
        {
          "indexed": false,
          "internalType": "address",
          "name": "_occupant",
          "type": "address"
        },
        {
          "indexed": false,
          "internalType": "uint256",
          "name": "_value",
          "type": "uint256"
        }
      ],
      "name": "Occupy",
      "type": "event"
    },
    {
      "constant": true,
      "inputs": [],
      "name": "owner",
      "outputs": [
        {
          "internalType": "address payable",
          "name": "",
          "type": "address"
        }
      ],
      "payable": false,
      "stateMutability": "view",
      "type": "function"
    },
    {
      "constant": false,
      "inputs": [],
      "name": "book",
      "outputs": [],
      "payable": true,
      "stateMutability": "payable",
      "type": "function"
    },
    {
      "constant": false,
      "inputs": [],
      "name": "checkout",
      "outputs": [],
      "payable": false,
      "stateMutability": "nonpayable",
      "type": "function"
    }
  ],
  "bytecode": "0x608060405234801561001057600080fd5b5060008054610100600160a81b03191633610100021760ff1916815561027690819061003c90396000f3fe6080604052600436106100345760003560e01c806305a8da721461003957806306099d69146100435780638da5cb5b14610058575b600080fd5b610041610089565b005b34801561004f57600080fd5b506100416101ca565b34801561006457600080fd5b5061006d61022d565b604080516001600160a01b039092168252519081900360200190f35b6000805460ff16600181111561009b57fe5b146100e3576040805162461bcd60e51b815260206004820152601360248201527221bab93932b73a363c9027b1b1bab834b2b21760691b604482015290519081900360640190fd5b671bc16d674ec8000080341015610141576040805162461bcd60e51b815260206004820152601a60248201527f4e6f7420656e6f7567682045746865722070726f76696465642e000000000000604482015290519081900360640190fd5b6000805460ff19166001178082556040516101009091046001600160a01b0316916108fc34801591909102929091818181858888f1935050505015801561018c573d6000803e3d6000fd5b506040805133815234602082015281517fba951166d42eb077151bdecb7cf6027562f04f0143b0c141b1bb0a33eef5d693929181900390910190a150565b600160005460ff1660018111156101dd57fe5b14610221576040805162461bcd60e51b815260206004820152600f60248201526e20b63932b0b23c902b30b1b0b73a1760891b604482015290519081900360640190fd5b6000805460ff19169055565b60005461010090046001600160a01b03168156fea265627a7a723158207c73c7fecd5c57eb229b5094a8d3c73eae888da6127be9a1249cefa2efb28f3a64736f6c63430005100032",
  "source": "pragma solidity ^0.5.16;\n\n// Ether - pay smart contracts\n// Modifiers\n// Visibility\n// Events\n// Enums\ncontract HotelRoom {\n\n  enum Statuses { Vacant, Occupied }\n  Statuses currentStatus;\n\n  address payable public owner;\n\n  event Occupy(address _occupant, uint _value);\n\n  constructor() public {\n    // The user who deploys the smart contract\n    owner = msg.sender;\n\n    currentStatus = Statuses.Vacant;\n  }\n\n  modifier costs(uint _amount) {\n    // Check price: should be true\n    require(msg.value >= _amount, \"Not enough Ether provided.\");\n    _;\n  }\n\n  modifier onlyWhileVacant {\n    // Check status: should be true\n    require(currentStatus == Statuses.Vacant, \"Currently Occupied.\");\n    _;\n  }\n\n  modifier onlyWhenOccupied {\n    // Check status: should be true\n    require(currentStatus == Statuses.Occupied, \"Already Vacant.\");\n    _;\n  }\n\n  // receive works in version >= 0.6.x \n  // acts as a fallback when just ether is sent to smart contract without any call data\n  // receive() external payable onlyWhileVacant costs(2 ether) {\n  function book() payable public onlyWhileVacant costs(2 ether) {\n    currentStatus = Statuses.Occupied;\n    // Send money to owner's account\n    owner.transfer(msg.value);\n\n    // Emits event that room is occupied\n    // Users can subscribe and listen for this event and do some action\n    emit Occupy(msg.sender, msg.value);\n  }\n\n  function checkout() public onlyWhenOccupied {\n    currentStatus = Statuses.Vacant;\n  }\n  \n}\n",
  "sourcePath": "/home/robogod/Code/blockchain/master-solidity/contracts/HotelRoom.sol",
  "compiler": {
    "name": "solc",
    "version": "0.5.16+commit.9c3226ce.Emscripten.clang"
  },
  "schemaVersion": "3.4.4",
  "updatedAt": "2022-01-30T07:20:48.569Z",
  "networkType": "ethereum",
  "devdoc": {
    "methods": {}
  },
  "userdoc": {
    "methods": {}
  }
}