{
  "contractName": "MyContract",
  "abi": [
    {
      "inputs": [],
      "payable": false,
      "stateMutability": "nonpayable",
      "type": "constructor"
    },
    {
      "constant": true,
      "inputs": [
        {
          "internalType": "uint256",
          "name": "",
          "type": "uint256"
        },
        {
          "internalType": "uint256",
          "name": "",
          "type": "uint256"
        }
      ],
      "name": "array2D",
      "outputs": [
        {
          "internalType": "uint256",
          "name": "",
          "type": "uint256"
        }
      ],
      "payable": false,
      "stateMutability": "view",
      "type": "function"
    },
    {
      "constant": true,
      "inputs": [
        {
          "internalType": "uint256",
          "name": "",
          "type": "uint256"
        }
      ],
      "name": "books",
      "outputs": [
        {
          "internalType": "uint256",
          "name": "id",
          "type": "uint256"
        },
        {
          "internalType": "string",
          "name": "title",
          "type": "string"
        },
        {
          "internalType": "string",
          "name": "author",
          "type": "string"
        }
      ],
      "payable": false,
      "stateMutability": "view",
      "type": "function"
    },
    {
      "constant": true,
      "inputs": [],
      "name": "myAddress",
      "outputs": [
        {
          "internalType": "address",
          "name": "",
          "type": "address"
        }
      ],
      "payable": false,
      "stateMutability": "view",
      "type": "function"
    },
    {
      "constant": true,
      "inputs": [
        {
          "internalType": "address",
          "name": "",
          "type": "address"
        },
        {
          "internalType": "uint256",
          "name": "",
          "type": "uint256"
        }
      ],
      "name": "myBooks",
      "outputs": [
        {
          "internalType": "uint256",
          "name": "id",
          "type": "uint256"
        },
        {
          "internalType": "string",
          "name": "title",
          "type": "string"
        },
        {
          "internalType": "string",
          "name": "author",
          "type": "string"
        }
      ],
      "payable": false,
      "stateMutability": "view",
      "type": "function"
    },
    {
      "constant": true,
      "inputs": [],
      "name": "myInt",
      "outputs": [
        {
          "internalType": "int256",
          "name": "",
          "type": "int256"
        }
      ],
      "payable": false,
      "stateMutability": "view",
      "type": "function"
    },
    {
      "constant": true,
      "inputs": [],
      "name": "myString",
      "outputs": [
        {
          "internalType": "string",
          "name": "",
          "type": "string"
        }
      ],
      "payable": false,
      "stateMutability": "view",
      "type": "function"
    },
    {
      "constant": true,
      "inputs": [],
      "name": "myStruct",
      "outputs": [
        {
          "internalType": "uint256",
          "name": "myInt",
          "type": "uint256"
        },
        {
          "internalType": "string",
          "name": "myString",
          "type": "string"
        }
      ],
      "payable": false,
      "stateMutability": "view",
      "type": "function"
    },
    {
      "constant": true,
      "inputs": [],
      "name": "myUint",
      "outputs": [
        {
          "internalType": "uint256",
          "name": "",
          "type": "uint256"
        }
      ],
      "payable": false,
      "stateMutability": "view",
      "type": "function"
    },
    {
      "constant": true,
      "inputs": [],
      "name": "myUint256",
      "outputs": [
        {
          "internalType": "uint256",
          "name": "",
          "type": "uint256"
        }
      ],
      "payable": false,
      "stateMutability": "view",
      "type": "function"
    },
    {
      "constant": true,
      "inputs": [],
      "name": "myUint8",
      "outputs": [
        {
          "internalType": "uint8",
          "name": "",
          "type": "uint8"
        }
      ],
      "payable": false,
      "stateMutability": "view",
      "type": "function"
    },
    {
      "constant": true,
      "inputs": [
        {
          "internalType": "uint256",
          "name": "",
          "type": "uint256"
        }
      ],
      "name": "names",
      "outputs": [
        {
          "internalType": "string",
          "name": "",
          "type": "string"
        }
      ],
      "payable": false,
      "stateMutability": "view",
      "type": "function"
    },
    {
      "constant": true,
      "inputs": [
        {
          "internalType": "uint256",
          "name": "",
          "type": "uint256"
        }
      ],
      "name": "stringArray",
      "outputs": [
        {
          "internalType": "string",
          "name": "",
          "type": "string"
        }
      ],
      "payable": false,
      "stateMutability": "view",
      "type": "function"
    },
    {
      "constant": true,
      "inputs": [
        {
          "internalType": "uint256",
          "name": "",
          "type": "uint256"
        }
      ],
      "name": "uintArray",
      "outputs": [
        {
          "internalType": "uint256",
          "name": "",
          "type": "uint256"
        }
      ],
      "payable": false,
      "stateMutability": "view",
      "type": "function"
    },
    {
      "constant": true,
      "inputs": [],
      "name": "getValue",
      "outputs": [
        {
          "internalType": "uint256",
          "name": "",
          "type": "uint256"
        }
      ],
      "payable": false,
      "stateMutability": "pure",
      "type": "function"
    },
    {
      "constant": false,
      "inputs": [
        {
          "internalType": "string",
          "name": "_value",
          "type": "string"
        }
      ],
      "name": "addValue",
      "outputs": [],
      "payable": false,
      "stateMutability": "nonpayable",
      "type": "function"
    },
    {
      "constant": true,
      "inputs": [],
      "name": "valueCount",
      "outputs": [
        {
          "internalType": "uint256",
          "name": "",
          "type": "uint256"
        }
      ],
      "payable": false,
      "stateMutability": "view",
      "type": "function"
    },
    {
      "constant": false,
      "inputs": [
        {
          "internalType": "uint256",
          "name": "_id",
          "type": "uint256"
        },
        {
          "internalType": "string",
          "name": "_title",
          "type": "string"
        },
        {
          "internalType": "string",
          "name": "_author",
          "type": "string"
        }
      ],
      "name": "addBook",
      "outputs": [],
      "payable": false,
      "stateMutability": "nonpayable",
      "type": "function"
    },
    {
      "constant": false,
      "inputs": [
        {
          "internalType": "uint256",
          "name": "_id",
          "type": "uint256"
        },
        {
          "internalType": "string",
          "name": "_title",
          "type": "string"
        },
        {
          "internalType": "string",
          "name": "_author",
          "type": "string"
        }
      ],
      "name": "addMyBook",
      "outputs": [],
      "payable": false,
      "stateMutability": "nonpayable",
      "type": "function"
    }
  ],
  "bytecode": "0x6001600081905580805560028190556003805460ff1916909117905560c0604052600d60808190526c48656c6c6f2c20576f726c642160981b60a09081526200004c9160049190620002be565b50600580546001600160a01b031916735a0b54d5dc17e0aadc38d3d2db43b0a003e029c417905560408051808201825260018152815180830190925260078083526648656c6c6f772160c81b60208481019182528301849052825160069081559351929392620000be929190620002be565b50506040805160608101825260018152600260208201526003918101829052620000ec925060089162000343565b5060408051606081018252600560208201908152646170706c6560d81b928201929092529081526200012390600990600162000386565b506040805160a0810182526001818301908152600260608084018290526003608085015291835283519182018452600482526005602083810191909152600694830194909452928201526200017c91600a9190620003e6565b503480156200018a57600080fd5b506200019e6001600160e01b03620001a416565b62000518565b6040805180820190915260078152661c9bd89bd1d3d160ca1b60208083019182526065600052600b90529051620001fd917fef9f389529476ca2f00a8e2d5991fddc784a5ef78916996333771927f3ae1bda91620002be565b5060408051808201909152600b8082526a2530b1b5902730b834b2b960a91b602080840191825260666000529190915290516200025c917f9b93b1f278920c61d89dbcb374ecb76190cc66519824442e7c3630b16c7fd3fd91620002be565b5060408051808201909152600c81526b41727468757220466c65636b60a01b60208083019182526067600052600b90529051620002bb917f8f2182650175f8d375204d5c926742cf9f5cdd5425f53e35baeae5413dfa366091620002be565b50565b828054600181600116156101000203166002900490600052602060002090601f016020900481019282601f106200030157805160ff191683800117855562000331565b8280016001018555821562000331579182015b828111156200033157825182559160200191906001019062000314565b506200033f92915062000440565b5090565b82805482825590600052602060002090810192821562000331579160200282015b8281111562000331578251829060ff1690559160200191906001019062000364565b828054828255906000526020600020908101928215620003d8579160200282015b82811115620003d85782518051620003c7918491602090910190620002be565b5091602001919060010190620003a7565b506200033f92915062000460565b82805482825590600052602060002090810192821562000432579160200282015b828111156200043257825162000421908390600362000343565b509160200191906001019062000407565b506200033f92915062000488565b6200045d91905b808211156200033f576000815560010162000447565b90565b6200045d91905b808211156200033f5760006200047e8282620004b0565b5060010162000467565b6200045d91905b808211156200033f576000620004a68282620004f8565b506001016200048f565b50805460018160011615610100020316600290046000825580601f10620004d85750620002bb565b601f016020900490600052602060002090810190620002bb919062000440565b5080546000825590600052602060002090810190620002bb919062000440565b610d4f80620005286000396000f3fe608060405234801561001057600080fd5b50600436106101165760003560e01c8063492bfa18116100a25780638bc9fe6c116100715780638bc9fe6c1461065c5780639ae918c7146106e3578063a7dbce1c14610700578063d3268fc114610708578063e2a4b2af1461072b57610116565b8063492bfa18146104ea578063493ec707146104f25780636422c4c814610622578063687440461461063f57610116565b806326eb4dbb116100e957806326eb4dbb1461029357806327d3553f1461029b5780632cb777a6146103ac5780633a5fbaaa146103b45780634622ab031461045857610116565b8063028414f21461011b57806306540f7e1461024d578063209652551461026757806326b85ee11461026f575b600080fd5b61024b6004803603606081101561013157600080fd5b81359190810190604081016020820135600160201b81111561015257600080fd5b82018360208201111561016457600080fd5b803590602001918460018302840111600160201b8311171561018557600080fd5b91908080601f0160208091040260200160405190810160405280939291908181526020018383808284376000920191909152509295949360208101935035915050600160201b8111156101d757600080fd5b8201836020820111156101e957600080fd5b803590602001918460018302840111600160201b8311171561020a57600080fd5b91908080601f016020809104026020016040519081016040528093929190818152602001838380828437600092019190915250929550610749945050505050565b005b6102556107b0565b60408051918252519081900360200190f35b6102556107b6565b6102776107bc565b604080516001600160a01b039092168252519081900360200190f35b6102556107cb565b6102c7600480360360408110156102b157600080fd5b506001600160a01b0381351690602001356107d1565b604051808481526020018060200180602001838103835285818151815260200191508051906020019080838360005b8381101561030e5781810151838201526020016102f6565b50505050905090810190601f16801561033b5780820380516001836020036101000a031916815260200191505b50838103825284518152845160209182019186019080838360005b8381101561036e578181015183820152602001610356565b50505050905090810190601f16801561039b5780820380516001836020036101000a031916815260200191505b509550505050505060405180910390f35b610255610911565b61024b600480360360208110156103ca57600080fd5b810190602081018135600160201b8111156103e457600080fd5b8201836020820111156103f657600080fd5b803590602001918460018302840111600160201b8311171561041757600080fd5b91908080601f016020809104026020016040519081016040528093929190818152602001838380828437600092019190915250929550610917945050505050565b6104756004803603602081101561046e57600080fd5b5035610960565b6040805160208082528351818301528351919283929083019185019080838360005b838110156104af578181015183820152602001610497565b50505050905090810190601f1680156104dc5780820380516001836020036101000a031916815260200191505b509250505060405180910390f35b6104756109fb565b61024b6004803603606081101561050857600080fd5b81359190810190604081016020820135600160201b81111561052957600080fd5b82018360208201111561053b57600080fd5b803590602001918460018302840111600160201b8311171561055c57600080fd5b91908080601f0160208091040260200160405190810160405280939291908181526020018383808284376000920191909152509295949360208101935035915050600160201b8111156105ae57600080fd5b8201836020820111156105c057600080fd5b803590602001918460018302840111600160201b831117156105e157600080fd5b91908080601f016020809104026020016040519081016040528093929190818152602001838380828437600092019190915250929550610a56945050505050565b6104756004803603602081101561063857600080fd5b5035610aa2565b6102c76004803603602081101561065557600080fd5b5035610b15565b610664610b87565b6040518083815260200180602001828103825283818151815260200191508051906020019080838360005b838110156106a757818101518382015260200161068f565b50505050905090810190601f1680156106d45780820380516001836020036101000a031916815260200191505b50935050505060405180910390f35b610255600480360360208110156106f957600080fd5b5035610c1e565b610255610c3c565b6102556004803603604081101561071e57600080fd5b5080359060200135610c42565b610733610c79565b6040805160ff9092168252519081900360200190f35b6040805160608101825284815260208082018581528284018590526000878152600c835293909320825181559251805192939261078c9260018501920190610c82565b50604082015180516107a8916002840191602090910190610c82565b505050505050565b60005481565b60015b90565b6005546001600160a01b031681565b60095490565b600d6020908152600092835260408084208252918352918190208054600180830180548551600293821615610100026000190190911692909204601f81018790048702830187019095528482529194929390928301828280156108755780601f1061084a57610100808354040283529160200191610875565b820191906000526020600020905b81548152906001019060200180831161085857829003601f168201915b50505060028085018054604080516020601f60001961010060018716150201909416959095049283018590048502810185019091528181529596959450909250908301828280156109075780601f106108dc57610100808354040283529160200191610907565b820191906000526020600020905b8154815290600101906020018083116108ea57829003601f168201915b5050505050905083565b60015481565b6009805460018101808355600092909252825161095b917f6e1540171b6c0c960b71a7020d9f60077f6af931a8bbf590da0223dacf75c7af01906020850190610c82565b505050565b600b6020908152600091825260409182902080548351601f6002600019610100600186161502019093169290920491820184900484028101840190945280845290918301828280156109f35780601f106109c8576101008083540402835291602001916109f3565b820191906000526020600020905b8154815290600101906020018083116109d657829003601f168201915b505050505081565b6004805460408051602060026001851615610100026000190190941693909304601f810184900484028201840190925281815292918301828280156109f35780601f106109c8576101008083540402835291602001916109f3565b604080516060810182528481526020808201858152828401859052336000908152600d8352848120888252835293909320825181559251805192939261078c9260018501920190610c82565b60098181548110610aaf57fe5b600091825260209182902001805460408051601f60026000196101006001871615020190941693909304928301859004850281018501909152818152935090918301828280156109f35780601f106109c8576101008083540402835291602001916109f3565b600c602090815260009182526040918290208054600180830180548651600293821615610100026000190190911692909204601f8101869004860283018601909652858252919492939092908301828280156108755780601f1061084a57610100808354040283529160200191610875565b600680546007805460408051602060026001851615610100026000190190941693909304601f81018490048402820184019092528181529394939291830182828015610c145780601f10610be957610100808354040283529160200191610c14565b820191906000526020600020905b815481529060010190602001808311610bf757829003601f168201915b5050505050905082565b60088181548110610c2b57fe5b600091825260209091200154905081565b60025481565b600a8281548110610c4f57fe5b906000526020600020018181548110610c6457fe5b90600052602060002001600091509150505481565b60035460ff1681565b828054600181600116156101000203166002900490600052602060002090601f016020900481019282601f10610cc357805160ff1916838001178555610cf0565b82800160010185558215610cf0579182015b82811115610cf0578251825591602001919060010190610cd5565b50610cfc929150610d00565b5090565b6107b991905b80821115610cfc5760008155600101610d0656fea265627a7a7231582071436b385254663933631a5ac9b7d03c2560a897225e27681596c0817ba3027e64736f6c63430005100032",
  "source": "pragma solidity ^0.5.16;\n\ncontract MyContract {\n  // State Variables: Stored in blockchain\n  uint public myUint = 1;\n  int public myInt = 1;\n  uint256 public myUint256 = 1; // default size for uint is 256\n  uint8 public myUint8 = 1;\n  string public myString = \"Hello, World!\";\n  address public myAddress = 0x5A0B54d5Dc17e0aADc38d3d2Db43B0A003E029c4;\n\n  // Custom Type\n  struct MyStruct {\n    uint myInt;\n    string myString;\n  }\n\n  MyStruct public myStruct = MyStruct(1, \"Hellow!\");\n\n  // Local Variables: stored locally inside function\n  function getValue() public pure returns(uint) {\n    uint value = 1;\n    // string memory _myLocalString = \"Hello, Function!\";\n    return value;\n  }\n\n  // Array\n  uint[] public uintArray = [1, 2, 3];\n  string[] public stringArray = [\"apple\"];\n  uint[][] public array2D = [ [1, 2, 3], [4, 5, 6]];\n\n  function addValue(string memory _value) public {\n    stringArray.push(_value);\n  }\n\n  function valueCount() public view returns (uint) {\n    return stringArray.length;\n  }\n\n  // Mappings: key => value\n  mapping(uint => string) public names;\n\n  constructor() public {\n    mappingInit();\n  } \n\n  function mappingInit() private {\n    names[101] = \"roboGOD\";\n    names[102] = \"Jack Napier\";\n    names[103] = \"Arthur Fleck\";\n  }\n\n  // Mapping of custom data types\n  struct Book {\n    uint id;\n    string title;\n    string author;\n  }\n\n  mapping(uint => Book) public books;\n\n  function addBook(uint _id, string memory _title, string memory _author) public {\n    books[_id] = Book(_id, _title, _author);\n  }\n\n  // Nested Mapping\n  mapping(address => mapping(uint => Book)) public myBooks;\n\n  // Add book to only my address\n  function addMyBook(uint _id, string memory _title, string memory _author) public {\n    myBooks[msg.sender][_id] = Book(_id, _title, _author);\n  }\n}\n",
  "sourcePath": "/home/robogod/Code/blockchain/master-solidity/contracts/MyContract.sol",
  "compiler": {
    "name": "solc",
    "version": "0.5.16+commit.9c3226ce.Emscripten.clang"
  },
  "schemaVersion": "3.4.4",
  "updatedAt": "2022-01-30T06:04:20.876Z",
  "networkType": "ethereum",
  "devdoc": {
    "methods": {}
  },
  "userdoc": {
    "methods": {}
  }
}