{
  "contractName": "MyContract",
  "abi": [
    {
      "constant": true,
      "inputs": [
        {
          "internalType": "uint256",
          "name": "",
          "type": "uint256"
        },
        {
          "internalType": "uint256",
          "name": "",
          "type": "uint256"
        }
      ],
      "name": "array2D",
      "outputs": [
        {
          "internalType": "uint256",
          "name": "",
          "type": "uint256"
        }
      ],
      "payable": false,
      "stateMutability": "view",
      "type": "function"
    },
    {
      "constant": true,
      "inputs": [],
      "name": "myAddress",
      "outputs": [
        {
          "internalType": "address",
          "name": "",
          "type": "address"
        }
      ],
      "payable": false,
      "stateMutability": "view",
      "type": "function"
    },
    {
      "constant": true,
      "inputs": [],
      "name": "myInt",
      "outputs": [
        {
          "internalType": "int256",
          "name": "",
          "type": "int256"
        }
      ],
      "payable": false,
      "stateMutability": "view",
      "type": "function"
    },
    {
      "constant": true,
      "inputs": [],
      "name": "myString",
      "outputs": [
        {
          "internalType": "string",
          "name": "",
          "type": "string"
        }
      ],
      "payable": false,
      "stateMutability": "view",
      "type": "function"
    },
    {
      "constant": true,
      "inputs": [],
      "name": "myStruct",
      "outputs": [
        {
          "internalType": "uint256",
          "name": "myInt",
          "type": "uint256"
        },
        {
          "internalType": "string",
          "name": "myString",
          "type": "string"
        }
      ],
      "payable": false,
      "stateMutability": "view",
      "type": "function"
    },
    {
      "constant": true,
      "inputs": [],
      "name": "myUint",
      "outputs": [
        {
          "internalType": "uint256",
          "name": "",
          "type": "uint256"
        }
      ],
      "payable": false,
      "stateMutability": "view",
      "type": "function"
    },
    {
      "constant": true,
      "inputs": [],
      "name": "myUint256",
      "outputs": [
        {
          "internalType": "uint256",
          "name": "",
          "type": "uint256"
        }
      ],
      "payable": false,
      "stateMutability": "view",
      "type": "function"
    },
    {
      "constant": true,
      "inputs": [],
      "name": "myUint8",
      "outputs": [
        {
          "internalType": "uint8",
          "name": "",
          "type": "uint8"
        }
      ],
      "payable": false,
      "stateMutability": "view",
      "type": "function"
    },
    {
      "constant": true,
      "inputs": [
        {
          "internalType": "uint256",
          "name": "",
          "type": "uint256"
        }
      ],
      "name": "stringArray",
      "outputs": [
        {
          "internalType": "string",
          "name": "",
          "type": "string"
        }
      ],
      "payable": false,
      "stateMutability": "view",
      "type": "function"
    },
    {
      "constant": true,
      "inputs": [
        {
          "internalType": "uint256",
          "name": "",
          "type": "uint256"
        }
      ],
      "name": "uintArray",
      "outputs": [
        {
          "internalType": "uint256",
          "name": "",
          "type": "uint256"
        }
      ],
      "payable": false,
      "stateMutability": "view",
      "type": "function"
    },
    {
      "constant": true,
      "inputs": [],
      "name": "getValue",
      "outputs": [
        {
          "internalType": "uint256",
          "name": "",
          "type": "uint256"
        }
      ],
      "payable": false,
      "stateMutability": "pure",
      "type": "function"
    },
    {
      "constant": false,
      "inputs": [
        {
          "internalType": "string",
          "name": "_value",
          "type": "string"
        }
      ],
      "name": "addValue",
      "outputs": [],
      "payable": false,
      "stateMutability": "nonpayable",
      "type": "function"
    },
    {
      "constant": true,
      "inputs": [],
      "name": "valueCount",
      "outputs": [
        {
          "internalType": "uint256",
          "name": "",
          "type": "uint256"
        }
      ],
      "payable": false,
      "stateMutability": "view",
      "type": "function"
    }
  ],
  "bytecode": "0x6001600081905580805560028190556003805460ff1916909117905560c0604052600d60808190526c48656c6c6f2c20576f726c642160981b60a09081526200004c916004919062000191565b50600580546001600160a01b031916735a0b54d5dc17e0aadc38d3d2db43b0a003e029c417905560408051808201825260018152815180830190925260078083526648656c6c6f772160c81b60208481019182528301849052825160069081559351929392620000be92919062000191565b50506040805160608101825260018152600260208201526003918101829052620000ec925060089162000216565b5060408051606081018252600560208201908152646170706c6560d81b928201929092529081526200012390600990600162000259565b506040805160a0810182526001818301908152600260608084018290526003608085015291835283519182018452600482526005602083810191909152600694830194909452928201526200017c91600a9190620002b9565b503480156200018a57600080fd5b50620003ee565b828054600181600116156101000203166002900490600052602060002090601f016020900481019282601f10620001d457805160ff191683800117855562000204565b8280016001018555821562000204579182015b8281111562000204578251825591602001919060010190620001e7565b506200021292915062000313565b5090565b82805482825590600052602060002090810192821562000204579160200282015b8281111562000204578251829060ff1690559160200191906001019062000237565b828054828255906000526020600020908101928215620002ab579160200282015b82811115620002ab57825180516200029a91849160209091019062000191565b50916020019190600101906200027a565b506200021292915062000333565b82805482825590600052602060002090810192821562000305579160200282015b8281111562000305578251620002f4908390600362000216565b5091602001919060010190620002da565b50620002129291506200035b565b6200033091905b808211156200021257600081556001016200031a565b90565b6200033091905b808211156200021257600062000351828262000383565b506001016200033a565b6200033091905b8082111562000212576000620003798282620003ce565b5060010162000362565b50805460018160011615610100020316600290046000825580601f10620003ab5750620003cb565b601f016020900490600052602060002090810190620003cb919062000313565b50565b5080546000825590600052602060002090810190620003cb919062000313565b61069280620003fe6000396000f3fe608060405234801561001057600080fd5b50600436106100cf5760003560e01c8063492bfa181161008c5780639ae918c7116100665780639ae918c7146102f3578063a7dbce1c14610310578063d3268fc114610318578063e2a4b2af1461033b576100cf565b8063492bfa18146101d25780636422c4c81461024f5780638bc9fe6c1461026c576100cf565b806306540f7e146100d457806320965255146100ee57806326b85ee1146100f657806326eb4dbb1461011a5780632cb777a6146101225780633a5fbaaa1461012a575b600080fd5b6100dc610359565b60408051918252519081900360200190f35b6100dc61035f565b6100fe610365565b604080516001600160a01b039092168252519081900360200190f35b6100dc610374565b6100dc61037a565b6101d06004803603602081101561014057600080fd5b81019060208101813564010000000081111561015b57600080fd5b82018360208201111561016d57600080fd5b8035906020019184600183028401116401000000008311171561018f57600080fd5b91908080601f016020809104026020016040519081016040528093929190818152602001838380828437600092019190915250929550610380945050505050565b005b6101da6103c9565b6040805160208082528351818301528351919283929083019185019080838360005b838110156102145781810151838201526020016101fc565b50505050905090810190601f1680156102415780820380516001836020036101000a031916815260200191505b509250505060405180910390f35b6101da6004803603602081101561026557600080fd5b5035610457565b6102746104ca565b6040518083815260200180602001828103825283818151815260200191508051906020019080838360005b838110156102b757818101518382015260200161029f565b50505050905090810190601f1680156102e45780820380516001836020036101000a031916815260200191505b50935050505060405180910390f35b6100dc6004803603602081101561030957600080fd5b5035610561565b6100dc61057f565b6100dc6004803603604081101561032e57600080fd5b5080359060200135610585565b6103436105bc565b6040805160ff9092168252519081900360200190f35b60005481565b60015b90565b6005546001600160a01b031681565b60095490565b60015481565b600980546001810180835560009290925282516103c4917f6e1540171b6c0c960b71a7020d9f60077f6af931a8bbf590da0223dacf75c7af019060208501906105c5565b505050565b6004805460408051602060026001851615610100026000190190941693909304601f8101849004840282018401909252818152929183018282801561044f5780601f106104245761010080835404028352916020019161044f565b820191906000526020600020905b81548152906001019060200180831161043257829003601f168201915b505050505081565b6009818154811061046457fe5b600091825260209182902001805460408051601f600260001961010060018716150201909416939093049283018590048502810185019091528181529350909183018282801561044f5780601f106104245761010080835404028352916020019161044f565b600680546007805460408051602060026001851615610100026000190190941693909304601f810184900484028201840190925281815293949392918301828280156105575780601f1061052c57610100808354040283529160200191610557565b820191906000526020600020905b81548152906001019060200180831161053a57829003601f168201915b5050505050905082565b6008818154811061056e57fe5b600091825260209091200154905081565b60025481565b600a828154811061059257fe5b9060005260206000200181815481106105a757fe5b90600052602060002001600091509150505481565b60035460ff1681565b828054600181600116156101000203166002900490600052602060002090601f016020900481019282601f1061060657805160ff1916838001178555610633565b82800160010185558215610633579182015b82811115610633578251825591602001919060010190610618565b5061063f929150610643565b5090565b61036291905b8082111561063f576000815560010161064956fea265627a7a723158207213987f398134bc24e3a0a4de1c3b19e4c7d1afbe4113ee6c46e4bead334be664736f6c63430005100032",
  "source": "pragma solidity ^0.5.16;\n\ncontract MyContract {\n  // State Variables: Stored in blockchain\n  uint public myUint = 1;\n  int public myInt = 1;\n  uint256 public myUint256 = 1; // default size for uint is 256\n  uint8 public myUint8 = 1;\n  string public myString = \"Hello, World!\";\n  address public myAddress = 0x5A0B54d5Dc17e0aADc38d3d2Db43B0A003E029c4;\n\n  // Custom Type\n  struct MyStruct {\n    uint myInt;\n    string myString;\n  }\n\n  MyStruct public myStruct = MyStruct(1, \"Hellow!\");\n\n  // Local Variables: stored locally inside function\n  function getValue() public pure returns(uint) {\n    uint value = 1;\n    // string memory _myLocalString = \"Hello, Function!\";\n    return value;\n  }\n\n  // Array\n  uint[] public uintArray = [1, 2, 3];\n  string[] public stringArray = [\"apple\"];\n  uint[][] public array2D = [ [1, 2, 3], [4, 5, 6]];\n\n  function addValue(string memory _value) public {\n    stringArray.push(_value);\n  }\n\n  function valueCount() public view returns (uint) {\n    return stringArray.length;\n  }\n}\n",
  "sourcePath": "/home/robogod/Code/blockchain/master-solidity/contracts/MyContract.sol",
  "compiler": {
    "name": "solc",
    "version": "0.5.16+commit.9c3226ce.Emscripten.clang"
  },
  "schemaVersion": "3.4.4",
  "updatedAt": "2022-01-30T05:22:36.611Z",
  "networkType": "ethereum",
  "devdoc": {
    "methods": {}
  },
  "userdoc": {
    "methods": {}
  }
}