{
  "contractName": "MyContract",
  "abi": [
    {
      "constant": true,
      "inputs": [],
      "name": "myAddress",
      "outputs": [
        {
          "internalType": "address",
          "name": "",
          "type": "address"
        }
      ],
      "payable": false,
      "stateMutability": "view",
      "type": "function"
    },
    {
      "constant": true,
      "inputs": [],
      "name": "myInt",
      "outputs": [
        {
          "internalType": "int256",
          "name": "",
          "type": "int256"
        }
      ],
      "payable": false,
      "stateMutability": "view",
      "type": "function"
    },
    {
      "constant": true,
      "inputs": [],
      "name": "myString",
      "outputs": [
        {
          "internalType": "string",
          "name": "",
          "type": "string"
        }
      ],
      "payable": false,
      "stateMutability": "view",
      "type": "function"
    },
    {
      "constant": true,
      "inputs": [],
      "name": "myStruct",
      "outputs": [
        {
          "internalType": "uint256",
          "name": "myInt",
          "type": "uint256"
        },
        {
          "internalType": "string",
          "name": "myString",
          "type": "string"
        }
      ],
      "payable": false,
      "stateMutability": "view",
      "type": "function"
    },
    {
      "constant": true,
      "inputs": [],
      "name": "myUint",
      "outputs": [
        {
          "internalType": "uint256",
          "name": "",
          "type": "uint256"
        }
      ],
      "payable": false,
      "stateMutability": "view",
      "type": "function"
    },
    {
      "constant": true,
      "inputs": [],
      "name": "myUint256",
      "outputs": [
        {
          "internalType": "uint256",
          "name": "",
          "type": "uint256"
        }
      ],
      "payable": false,
      "stateMutability": "view",
      "type": "function"
    },
    {
      "constant": true,
      "inputs": [],
      "name": "myUint8",
      "outputs": [
        {
          "internalType": "uint8",
          "name": "",
          "type": "uint8"
        }
      ],
      "payable": false,
      "stateMutability": "view",
      "type": "function"
    },
    {
      "constant": true,
      "inputs": [],
      "name": "getValue",
      "outputs": [
        {
          "internalType": "uint256",
          "name": "",
          "type": "uint256"
        }
      ],
      "payable": false,
      "stateMutability": "pure",
      "type": "function"
    }
  ],
  "bytecode": "0x6001600081905580805560028190556003805460ff1916909117905560c0604052600d60808190526c48656c6c6f2c20576f726c642160981b60a090815261004a91600491906100cf565b50600580546001600160a01b031916735a0b54d5dc17e0aadc38d3d2db43b0a003e029c417905560408051808201825260018152815180830190925260078083526648656c6c6f772160c81b602084810191825283018490528251600690815593519293926100ba9291906100cf565b5050503480156100c957600080fd5b5061016a565b828054600181600116156101000203166002900490600052602060002090601f016020900481019282601f1061011057805160ff191683800117855561013d565b8280016001018555821561013d579182015b8281111561013d578251825591602001919060010190610122565b5061014992915061014d565b5090565b61016791905b808211156101495760008155600101610153565b90565b61038e806101796000396000f3fe608060405234801561001057600080fd5b50600436106100885760003560e01c8063492bfa181161005b578063492bfa18146100db5780638bc9fe6c14610158578063a7dbce1c146101df578063e2a4b2af146101e757610088565b806306540f7e1461008d57806320965255146100a757806326b85ee1146100af5780632cb777a6146100d3575b600080fd5b610095610205565b60408051918252519081900360200190f35b61009561020b565b6100b7610210565b604080516001600160a01b039092168252519081900360200190f35b61009561021f565b6100e3610225565b6040805160208082528351818301528351919283929083019185019080838360005b8381101561011d578181015183820152602001610105565b50505050905090810190601f16801561014a5780820380516001836020036101000a031916815260200191505b509250505060405180910390f35b6101606102b3565b6040518083815260200180602001828103825283818151815260200191508051906020019080838360005b838110156101a357818101518382015260200161018b565b50505050905090810190601f1680156101d05780820380516001836020036101000a031916815260200191505b50935050505060405180910390f35b61009561034a565b6101ef610350565b6040805160ff9092168252519081900360200190f35b60005481565b600190565b6005546001600160a01b031681565b60015481565b6004805460408051602060026001851615610100026000190190941693909304601f810184900484028201840190925281815292918301828280156102ab5780601f10610280576101008083540402835291602001916102ab565b820191906000526020600020905b81548152906001019060200180831161028e57829003601f168201915b505050505081565b600680546007805460408051602060026001851615610100026000190190941693909304601f810184900484028201840190925281815293949392918301828280156103405780601f1061031557610100808354040283529160200191610340565b820191906000526020600020905b81548152906001019060200180831161032357829003601f168201915b5050505050905082565b60025481565b60035460ff168156fea265627a7a72315820fe8cd2e8bd75b3e9dc350ef251451797b5f175eaf9aef104763df4cef11cbf0f64736f6c63430005100032",
  "source": "pragma solidity ^0.5.16;\n\ncontract MyContract {\n  // State Variables: Stored in blockchain\n  uint public myUint = 1;\n  int public myInt = 1;\n  uint256 public myUint256 = 1; // default size for uint is 256\n  uint8 public myUint8 = 1;\n  string public myString = \"Hello, World!\";\n  address public myAddress = 0x5A0B54d5Dc17e0aADc38d3d2Db43B0A003E029c4;\n\n  // Custom Type\n  struct MyStruct {\n    uint myInt;\n    string myString;\n  }\n\n  MyStruct public myStruct = MyStruct(1, \"Hellow!\");\n\n  // Local Variables: stored locally inside function\n  function getValue() public pure returns(uint) {\n    uint value = 1;\n    // string memory _myLocalString = \"Hello, Function!\";\n    return value;\n  }\n}\n",
  "sourcePath": "/home/robogod/Code/blockchain/master-solidity/contracts/MyContract.sol",
  "compiler": {
    "name": "solc",
    "version": "0.5.16+commit.9c3226ce.Emscripten.clang"
  },
  "schemaVersion": "3.4.4",
  "updatedAt": "2022-01-29T14:37:43.872Z",
  "networkType": "ethereum",
  "devdoc": {
    "methods": {}
  },
  "userdoc": {
    "methods": {}
  }
}