{
  "contractName": "MyContract",
  "abi": [
    {
      "inputs": [],
      "payable": false,
      "stateMutability": "nonpayable",
      "type": "constructor"
    },
    {
      "constant": true,
      "inputs": [
        {
          "internalType": "uint256",
          "name": "",
          "type": "uint256"
        },
        {
          "internalType": "uint256",
          "name": "",
          "type": "uint256"
        }
      ],
      "name": "array2D",
      "outputs": [
        {
          "internalType": "uint256",
          "name": "",
          "type": "uint256"
        }
      ],
      "payable": false,
      "stateMutability": "view",
      "type": "function"
    },
    {
      "constant": true,
      "inputs": [
        {
          "internalType": "uint256",
          "name": "",
          "type": "uint256"
        }
      ],
      "name": "books",
      "outputs": [
        {
          "internalType": "uint256",
          "name": "id",
          "type": "uint256"
        },
        {
          "internalType": "string",
          "name": "title",
          "type": "string"
        },
        {
          "internalType": "string",
          "name": "author",
          "type": "string"
        }
      ],
      "payable": false,
      "stateMutability": "view",
      "type": "function"
    },
    {
      "constant": true,
      "inputs": [],
      "name": "myAddress",
      "outputs": [
        {
          "internalType": "address",
          "name": "",
          "type": "address"
        }
      ],
      "payable": false,
      "stateMutability": "view",
      "type": "function"
    },
    {
      "constant": true,
      "inputs": [
        {
          "internalType": "address",
          "name": "",
          "type": "address"
        },
        {
          "internalType": "uint256",
          "name": "",
          "type": "uint256"
        }
      ],
      "name": "myBooks",
      "outputs": [
        {
          "internalType": "uint256",
          "name": "id",
          "type": "uint256"
        },
        {
          "internalType": "string",
          "name": "title",
          "type": "string"
        },
        {
          "internalType": "string",
          "name": "author",
          "type": "string"
        }
      ],
      "payable": false,
      "stateMutability": "view",
      "type": "function"
    },
    {
      "constant": true,
      "inputs": [],
      "name": "myInt",
      "outputs": [
        {
          "internalType": "int256",
          "name": "",
          "type": "int256"
        }
      ],
      "payable": false,
      "stateMutability": "view",
      "type": "function"
    },
    {
      "constant": true,
      "inputs": [],
      "name": "myString",
      "outputs": [
        {
          "internalType": "string",
          "name": "",
          "type": "string"
        }
      ],
      "payable": false,
      "stateMutability": "view",
      "type": "function"
    },
    {
      "constant": true,
      "inputs": [],
      "name": "myStruct",
      "outputs": [
        {
          "internalType": "uint256",
          "name": "myInt",
          "type": "uint256"
        },
        {
          "internalType": "string",
          "name": "myString",
          "type": "string"
        }
      ],
      "payable": false,
      "stateMutability": "view",
      "type": "function"
    },
    {
      "constant": true,
      "inputs": [],
      "name": "myUint",
      "outputs": [
        {
          "internalType": "uint256",
          "name": "",
          "type": "uint256"
        }
      ],
      "payable": false,
      "stateMutability": "view",
      "type": "function"
    },
    {
      "constant": true,
      "inputs": [],
      "name": "myUint256",
      "outputs": [
        {
          "internalType": "uint256",
          "name": "",
          "type": "uint256"
        }
      ],
      "payable": false,
      "stateMutability": "view",
      "type": "function"
    },
    {
      "constant": true,
      "inputs": [],
      "name": "myUint8",
      "outputs": [
        {
          "internalType": "uint8",
          "name": "",
          "type": "uint8"
        }
      ],
      "payable": false,
      "stateMutability": "view",
      "type": "function"
    },
    {
      "constant": true,
      "inputs": [
        {
          "internalType": "uint256",
          "name": "",
          "type": "uint256"
        }
      ],
      "name": "names",
      "outputs": [
        {
          "internalType": "string",
          "name": "",
          "type": "string"
        }
      ],
      "payable": false,
      "stateMutability": "view",
      "type": "function"
    },
    {
      "constant": true,
      "inputs": [
        {
          "internalType": "uint256",
          "name": "",
          "type": "uint256"
        }
      ],
      "name": "numbers",
      "outputs": [
        {
          "internalType": "uint256",
          "name": "",
          "type": "uint256"
        }
      ],
      "payable": false,
      "stateMutability": "view",
      "type": "function"
    },
    {
      "constant": true,
      "inputs": [],
      "name": "owner",
      "outputs": [
        {
          "internalType": "address",
          "name": "",
          "type": "address"
        }
      ],
      "payable": false,
      "stateMutability": "view",
      "type": "function"
    },
    {
      "constant": true,
      "inputs": [
        {
          "internalType": "uint256",
          "name": "",
          "type": "uint256"
        }
      ],
      "name": "stringArray",
      "outputs": [
        {
          "internalType": "string",
          "name": "",
          "type": "string"
        }
      ],
      "payable": false,
      "stateMutability": "view",
      "type": "function"
    },
    {
      "constant": true,
      "inputs": [
        {
          "internalType": "uint256",
          "name": "",
          "type": "uint256"
        }
      ],
      "name": "uintArray",
      "outputs": [
        {
          "internalType": "uint256",
          "name": "",
          "type": "uint256"
        }
      ],
      "payable": false,
      "stateMutability": "view",
      "type": "function"
    },
    {
      "constant": true,
      "inputs": [],
      "name": "getValue",
      "outputs": [
        {
          "internalType": "uint256",
          "name": "",
          "type": "uint256"
        }
      ],
      "payable": false,
      "stateMutability": "pure",
      "type": "function"
    },
    {
      "constant": false,
      "inputs": [
        {
          "internalType": "string",
          "name": "_value",
          "type": "string"
        }
      ],
      "name": "addValue",
      "outputs": [],
      "payable": false,
      "stateMutability": "nonpayable",
      "type": "function"
    },
    {
      "constant": true,
      "inputs": [],
      "name": "valueCount",
      "outputs": [
        {
          "internalType": "uint256",
          "name": "",
          "type": "uint256"
        }
      ],
      "payable": false,
      "stateMutability": "view",
      "type": "function"
    },
    {
      "constant": false,
      "inputs": [
        {
          "internalType": "uint256",
          "name": "_id",
          "type": "uint256"
        },
        {
          "internalType": "string",
          "name": "_title",
          "type": "string"
        },
        {
          "internalType": "string",
          "name": "_author",
          "type": "string"
        }
      ],
      "name": "addBook",
      "outputs": [],
      "payable": false,
      "stateMutability": "nonpayable",
      "type": "function"
    },
    {
      "constant": false,
      "inputs": [
        {
          "internalType": "uint256",
          "name": "_id",
          "type": "uint256"
        },
        {
          "internalType": "string",
          "name": "_title",
          "type": "string"
        },
        {
          "internalType": "string",
          "name": "_author",
          "type": "string"
        }
      ],
      "name": "addMyBook",
      "outputs": [],
      "payable": false,
      "stateMutability": "nonpayable",
      "type": "function"
    },
    {
      "constant": true,
      "inputs": [
        {
          "internalType": "uint256",
          "name": "_number",
          "type": "uint256"
        }
      ],
      "name": "isEvenNumber",
      "outputs": [
        {
          "internalType": "string",
          "name": "",
          "type": "string"
        }
      ],
      "payable": false,
      "stateMutability": "pure",
      "type": "function"
    },
    {
      "constant": true,
      "inputs": [],
      "name": "countEvenNumbers",
      "outputs": [
        {
          "internalType": "uint256",
          "name": "",
          "type": "uint256"
        }
      ],
      "payable": false,
      "stateMutability": "view",
      "type": "function"
    },
    {
      "constant": true,
      "inputs": [],
      "name": "isOwner",
      "outputs": [
        {
          "internalType": "bool",
          "name": "",
          "type": "bool"
        }
      ],
      "payable": false,
      "stateMutability": "view",
      "type": "function"
    }
  ],
  "bytecode": "0x6001600081905580805560028190556003805460ff1916909117905560c0604052600d60808190526c48656c6c6f2c20576f726c642160981b60a09081526200004c916004919062000322565b50600580546001600160a01b031916735a0b54d5dc17e0aadc38d3d2db43b0a003e029c417905560408051808201825260018152815180830190925260078083526648656c6c6f772160c81b6020848101918252830184905282518255925191929091620000bd9160089162000322565b50506040805160608101825260018152600260208201526003918101829052620000eb9250600991620003a7565b5060408051606081018252600560208201908152646170706c6560d81b928201929092529081526200012290600a906001620003ea565b506040805160a0810182526001818301908152600260608084018290526003608085015291835283519182018452600482526005602083810191909152600694830194909452928201526200017b91600b91906200044a565b50604080516101008101825260018152600260208201526004918101919091526005606082015260066080820152601460a0820152601660c0820152601960e0820152620001ce90600f906008620003a7565b50348015620001dc57600080fd5b50620001f06001600160e01b036200020816565b600680546001600160a01b031916331790556200057c565b6040805180820190915260078152661c9bd89bd1d3d160ca1b60208083019182526065600052600c9052905162000261917f40bf9d9f34e44c316634927ac0b32bbadacc4320b4afbc5a2c3cc0df5c0089df9162000322565b5060408051808201909152600b81526a2530b1b5902730b834b2b960a91b60208083019182526066600052600c90529051620002bf917f67c07fe1a25659bb983220e5decd0dc907eb51380bc96ba59a7af9d977b514aa9162000322565b5060408051808201909152600c8082526b41727468757220466c65636b60a01b602080840191825260676000529190915290516200031f917f516850eb393bf5ee7d85d9f49af7fa24c1b98b0d04a9cef38a73ce4bb69209d79162000322565b50565b828054600181600116156101000203166002900490600052602060002090601f016020900481019282601f106200036557805160ff191683800117855562000395565b8280016001018555821562000395579182015b828111156200039557825182559160200191906001019062000378565b50620003a3929150620004a4565b5090565b82805482825590600052602060002090810192821562000395579160200282015b8281111562000395578251829060ff16905591602001919060010190620003c8565b8280548282559060005260206000209081019282156200043c579160200282015b828111156200043c57825180516200042b91849160209091019062000322565b50916020019190600101906200040b565b50620003a3929150620004c4565b82805482825590600052602060002090810192821562000496579160200282015b8281111562000496578251620004859083906003620003a7565b50916020019190600101906200046b565b50620003a3929150620004ec565b620004c191905b80821115620003a35760008155600101620004ab565b90565b620004c191905b80821115620003a3576000620004e2828262000514565b50600101620004cb565b620004c191905b80821115620003a35760006200050a82826200055c565b50600101620004f3565b50805460018160011615610100020316600290046000825580601f106200053c57506200031f565b601f0160209004906000526020600020908101906200031f9190620004a4565b50805460008255906000526020600020908101906200031f9190620004a4565b610eb2806200058c6000396000f3fe608060405234801561001057600080fd5b506004361061014d5760003560e01c8063493ec707116100c35780639ae918c71161007c5780639ae918c714610746578063a7dbce1c14610763578063d3268fc11461076b578063d39fa2331461078e578063e2a4b2af146107ab578063e5054c69146107c95761014d565b8063493ec707146105315780636422c4c814610661578063687440461461067e5780638bc9fe6c1461069b5780638da5cb5b146107225780638f32d59b1461072a5761014d565b806327d3553f1161011557806327d3553f146102d25780632cb777a6146103e3578063306d3e02146103eb5780633a5fbaaa146103f35780634622ab0314610497578063492bfa18146105295761014d565b8063028414f21461015257806306540f7e14610284578063209652551461029e57806326b85ee1146102a657806326eb4dbb146102ca575b600080fd5b6102826004803603606081101561016857600080fd5b81359190810190604081016020820135600160201b81111561018957600080fd5b82018360208201111561019b57600080fd5b803590602001918460018302840111600160201b831117156101bc57600080fd5b91908080601f0160208091040260200160405190810160405280939291908181526020018383808284376000920191909152509295949360208101935035915050600160201b81111561020e57600080fd5b82018360208201111561022057600080fd5b803590602001918460018302840111600160201b8311171561024157600080fd5b91908080601f0160208091040260200160405190810160405280939291908181526020018383808284376000920191909152509295506107e6945050505050565b005b61028c61084d565b60408051918252519081900360200190f35b61028c610853565b6102ae610859565b604080516001600160a01b039092168252519081900360200190f35b61028c610868565b6102fe600480360360408110156102e857600080fd5b506001600160a01b03813516906020013561086e565b604051808481526020018060200180602001838103835285818151815260200191508051906020019080838360005b8381101561034557818101518382015260200161032d565b50505050905090810190601f1680156103725780820380516001836020036101000a031916815260200191505b50838103825284518152845160209182019186019080838360005b838110156103a557818101518382015260200161038d565b50505050905090810190601f1680156103d25780820380516001836020036101000a031916815260200191505b509550505050505060405180910390f35b61028c6109ae565b61028c6109b4565b6102826004803603602081101561040957600080fd5b810190602081018135600160201b81111561042357600080fd5b82018360208201111561043557600080fd5b803590602001918460018302840111600160201b8311171561045657600080fd5b91908080601f0160208091040260200160405190810160405280939291908181526020018383808284376000920191909152509295506109fe945050505050565b6104b4600480360360208110156104ad57600080fd5b5035610a47565b6040805160208082528351818301528351919283929083019185019080838360005b838110156104ee5781810151838201526020016104d6565b50505050905090810190601f16801561051b5780820380516001836020036101000a031916815260200191505b509250505060405180910390f35b6104b4610ae2565b6102826004803603606081101561054757600080fd5b81359190810190604081016020820135600160201b81111561056857600080fd5b82018360208201111561057a57600080fd5b803590602001918460018302840111600160201b8311171561059b57600080fd5b91908080601f0160208091040260200160405190810160405280939291908181526020018383808284376000920191909152509295949360208101935035915050600160201b8111156105ed57600080fd5b8201836020820111156105ff57600080fd5b803590602001918460018302840111600160201b8311171561062057600080fd5b91908080601f016020809104026020016040519081016040528093929190818152602001838380828437600092019190915250929550610b3d945050505050565b6104b46004803603602081101561067757600080fd5b5035610b89565b6102fe6004803603602081101561069457600080fd5b5035610bfc565b6106a3610c6e565b6040518083815260200180602001828103825283818151815260200191508051906020019080838360005b838110156106e65781810151838201526020016106ce565b50505050905090810190601f1680156107135780820380516001836020036101000a031916815260200191505b50935050505060405180910390f35b6102ae610d05565b610732610d14565b604080519115158252519081900360200190f35b61028c6004803603602081101561075c57600080fd5b5035610d25565b61028c610d43565b61028c6004803603604081101561078157600080fd5b5080359060200135610d49565b61028c600480360360208110156107a457600080fd5b5035610d80565b6107b3610d8d565b6040805160ff9092168252519081900360200190f35b6104b4600480360360208110156107df57600080fd5b5035610d96565b6040805160608101825284815260208082018581528284018590526000878152600d83529390932082518155925180519293926108299260018501920190610de5565b5060408201518051610845916002840191602090910190610de5565b505050505050565b60005481565b60015b90565b6005546001600160a01b031681565b600a5490565b600e6020908152600092835260408084208252918352918190208054600180830180548551600293821615610100026000190190911692909204601f81018790048702830187019095528482529194929390928301828280156109125780601f106108e757610100808354040283529160200191610912565b820191906000526020600020905b8154815290600101906020018083116108f557829003601f168201915b50505060028085018054604080516020601f60001961010060018716150201909416959095049283018590048502810185019091528181529596959450909250908301828280156109a45780601f10610979576101008083540402835291602001916109a4565b820191906000526020600020905b81548152906001019060200180831161098757829003601f168201915b5050505050905083565b60015481565b600080805b600f548110156109f8576002600f82815481106109d257fe5b9060005260206000200154816109e457fe5b066109f0576001909101905b6001016109b9565b50905090565b600a8054600181018083556000929092528251610a42917fc65a7bb8d6351c1cf70c95a316cc6a92839c986682d98bc35f958f4883f9d2a801906020850190610de5565b505050565b600c6020908152600091825260409182902080548351601f600260001961010060018616150201909316929092049182018490048402810184019094528084529091830182828015610ada5780601f10610aaf57610100808354040283529160200191610ada565b820191906000526020600020905b815481529060010190602001808311610abd57829003601f168201915b505050505081565b6004805460408051602060026001851615610100026000190190941693909304601f81018490048402820184019092528181529291830182828015610ada5780601f10610aaf57610100808354040283529160200191610ada565b604080516060810182528481526020808201858152828401859052336000908152600e835284812088825283529390932082518155925180519293926108299260018501920190610de5565b600a8181548110610b9657fe5b600091825260209182902001805460408051601f6002600019610100600187161502019094169390930492830185900485028101850190915281815293509091830182828015610ada5780601f10610aaf57610100808354040283529160200191610ada565b600d602090815260009182526040918290208054600180830180548651600293821615610100026000190190911692909204601f8101869004860283018601909652858252919492939092908301828280156109125780601f106108e757610100808354040283529160200191610912565b600780546008805460408051602060026001851615610100026000190190941693909304601f81018490048402820184019092528181529394939291830182828015610cfb5780601f10610cd057610100808354040283529160200191610cfb565b820191906000526020600020905b815481529060010190602001808311610cde57829003601f168201915b5050505050905082565b6006546001600160a01b031681565b6006546001600160a01b0316331490565b60098181548110610d3257fe5b600091825260209091200154905081565b60025481565b600b8281548110610d5657fe5b906000526020600020018181548110610d6b57fe5b90600052602060002001600091509150505481565b600f8181548110610d3257fe5b60035460ff1681565b606060028206610dc25750604080518082019091526005815264596561682160d81b6020820152610de0565b506040805180820190915260058152644e6f70652160d81b60208201525b919050565b828054600181600116156101000203166002900490600052602060002090601f016020900481019282601f10610e2657805160ff1916838001178555610e53565b82800160010185558215610e53579182015b82811115610e53578251825591602001919060010190610e38565b50610e5f929150610e63565b5090565b61085691905b80821115610e5f5760008155600101610e6956fea265627a7a7231582073c570d5e837cdb22562e5dcdf963203d3cd2a8d2389c6988487f777b32297f464736f6c63430005100032",
  "source": "pragma solidity ^0.5.16;\n\ncontract MyContract {\n  // State Variables: Stored in blockchain\n  uint public myUint = 1;\n  int public myInt = 1;\n  uint256 public myUint256 = 1; // default size for uint is 256\n  uint8 public myUint8 = 1;\n  string public myString = \"Hello, World!\";\n  address public myAddress = 0x5A0B54d5Dc17e0aADc38d3d2Db43B0A003E029c4;\n  address public owner;\n\n  // Custom Type\n  struct MyStruct {\n    uint myInt;\n    string myString;\n  }\n\n  MyStruct public myStruct = MyStruct(1, \"Hellow!\");\n\n  // Local Variables: stored locally inside function\n  function getValue() public pure returns(uint) {\n    uint value = 1;\n    // string memory _myLocalString = \"Hello, Function!\";\n    return value;\n  }\n\n  // Array\n  uint[] public uintArray = [1, 2, 3];\n  string[] public stringArray = [\"apple\"];\n  uint[][] public array2D = [ [1, 2, 3], [4, 5, 6]];\n\n  function addValue(string memory _value) public {\n    stringArray.push(_value);\n  }\n\n  function valueCount() public view returns (uint) {\n    return stringArray.length;\n  }\n\n  // Mappings: key => value\n  mapping(uint => string) public names;\n\n  constructor() public {\n    mappingInit();\n    owner = msg.sender;\n  } \n\n  function mappingInit() private {\n    names[101] = \"roboGOD\";\n    names[102] = \"Jack Napier\";\n    names[103] = \"Arthur Fleck\";\n  }\n\n  // Mapping of custom data types\n  struct Book {\n    uint id;\n    string title;\n    string author;\n  }\n\n  mapping(uint => Book) public books;\n\n  function addBook(uint _id, string memory _title, string memory _author) public {\n    books[_id] = Book(_id, _title, _author);\n  }\n\n  // Nested Mapping\n  mapping(address => mapping(uint => Book)) public myBooks;\n\n  // Add book to only my address\n  function addMyBook(uint _id, string memory _title, string memory _author) public {\n    myBooks[msg.sender][_id] = Book(_id, _title, _author);\n  }\n\n  // Conditionals\n  function isEvenNumber(uint _number) public pure returns(string memory) {\n    if(_number % 2 == 0) {\n      return \"Yeah!\";\n    } else {\n      return \"Nope!\";\n    }\n  }\n\n  // Loops\n  uint[] public numbers = [1, 2, 4, 5, 6, 20, 22, 25];\n  \n  function countEvenNumbers() public view returns (uint) {\n    uint count = 0;\n\n    for(uint i=0; i < numbers.length; i++) {\n      if(numbers[i] % 2 == 0) {\n        count++;\n      }\n    }\n\n    return count;\n  }\n\n  function isOwner() public view returns (bool) {\n    return (msg.sender == owner);\n  }\n}\n",
  "sourcePath": "/home/robogod/Code/blockchain/master-solidity/contracts/MyContract.sol",
  "compiler": {
    "name": "solc",
    "version": "0.5.16+commit.9c3226ce.Emscripten.clang"
  },
  "schemaVersion": "3.4.4",
  "updatedAt": "2022-01-30T07:57:18.044Z",
  "networkType": "ethereum",
  "devdoc": {
    "methods": {}
  },
  "userdoc": {
    "methods": {}
  }
}